:100000000C9463000C948B000C948B000C940304F0
:100010000C9403040C9403040C948B000C948B003C
:100020000C948B000C948B000C948B000C948B0024
:100030000C948B000C948B000C948B000C948B0014
:100040000C94B9030C948B000C9487030C946103FB
:100050000C948B000C948B000C948B000C948B00F4
:100060000C948B000C948B000000000024002700EF
:100070002A0000000008000201000003040700003D
:1000800000000000000000000000250028002B00F8
:1000900000000000230026002900040404040404D6
:1000A0000404020202020202030303030303010227
:1000B00004081020408001020408102001020408F6
:1000C00010207D04140711241FBECFEFD8E0DEBF3F
:1000D000CDBF11E0A0E0B1E0E6E5F3E102C005909C
:1000E0000D92A234B107D9F722E0A2E4B1E001C039
:1000F0001D92A535B207E1F710E0C2E6D0E004C0DA
:100100002197FE010E944C07C136D107C9F70E9412
:1001100039050C949E090C940000CF92DF92EF9267
:10012000FF920F931F93CF93DF936C017A018B01A2
:10013000C0E0D0E0CE15DF0589F0D8016D918D01CA
:10014000D601ED91FC910190F081E02DC601099559
:10015000892B11F47E0102C02196ECCFC701DF91FB
:10016000CF911F910F91FF90EF90DF90CF90089566
:10017000FC01918D828D981761F0828DDF01A80FAF
:10018000B11D5D968C91928D9F5F9F73928F90E0D1
:1001900008958FEF9FEF0895FC01918D828D981740
:1001A00031F0828DE80FF11D858D90E008958FEF7D
:1001B0009FEF0895FC01918D228D892F90E0805C46
:1001C0009F4F821B91098F73992708958FE891E0C3
:1001D0000E94DA0021E0892B09F420E0822F0895A3
:1001E000FC01848DDF01A80FB11DA35ABF4F2C91D4
:1001F000848D90E001968F739927848FA689B789A3
:100200002C93A089B1898C9180648C93938D848D7B
:10021000981306C00288F389E02D80818F7D80834A
:100220000895EF92FF920F931F93CF93DF93EC010A
:1002300081E0888F9B8D8C8D981305C0E889F989A2
:10024000808185FD24C0F62E0B8D10E00F5F1F4FBF
:100250000F731127E02E8C8DE8120CC00FB607FC2F
:10026000FACFE889F989808185FFF5CFCE010E9418
:10027000F000F1CF8B8DFE01E80FF11DE35AFF4F27
:10028000F0820B8FEA89FB898081806207C0EE894A
:10029000FF896083E889F98980818064808381E0B7
:1002A00090E0DF91CF911F910F91FF90EF90089513
:1002B000CF93DF93EC01888D8823C9F0EA89FB890D
:1002C000808185FD05C0A889B9898C9186FD0FC004
:1002D0000FB607FCF5CF808185FFF2CFA889B989D9
:1002E0008C9185FFEDCFCE010E94F000E7CFDF912A
:1002F000CF91089580E090E0892B29F00E94E600DC
:1003000081110C940000089590E0FC01EE58FF4F1D
:100310003491FC01E255FF4F2491FC01E656FF4F5A
:10032000E491EE2309F43BC0332339F1333091F0EB
:1003300038F43130A9F0323001F584B58F7D12C028
:10034000373091F03830A1F03430B9F4809180002A
:100350008F7D03C0809180008F77809380000DC0D7
:1003600084B58F7784BD09C08091B0008F7703C0BA
:100370008091B0008F7D8093B000F0E0EE0FFF1F02
:10038000EA57FF4FA591B4918FB7F894EC916111A2
:1003900003C020952E2301C02E2B2C938FBF0895D0
:1003A000CF93DF9390E0FC01E255FF4F2491FC01D5
:1003B000E656FF4F8491882361F190E0880F991FE2
:1003C000FC01E859FF4FC591D491FC01EA57FF4F5A
:1003D000A591B491611109C09FB7F89488812095C7
:1003E00082238883EC912E230BC0623061F49FB787
:1003F000F8943881822F809583238883EC912E2B6B
:100400002C939FBF06C08FB7F894E8812E2B2883CA
:100410008FBFDF91CF9108953FB7F8948091870106
:1004200090918801A0918901B0918A0126B5A89B7D
:1004300005C02F3F19F00196A11DB11D3FBFBA2F76
:10044000A92F982F8827820F911DA11DB11DBC01D6
:10045000CD0142E0660F771F881F991F4A95D1F79B
:10046000089520918D0130918E012817390771F47C
:1004700090918B0180918C01981741F0E0918B0154
:10048000F0E0EE5BFE4F808190E008958FEF9FEFEC
:10049000089508951F93CF93DF93DC015C962D910F
:1004A0003C915D972115310539F481E090E0139678
:1004B0009C938E9312973DC05196ED91FC9152976B
:1004C00050969C915097892F80951FB75E964C91BE
:1004D0005E9741FB772770F941FD6095F894408164
:1004E000772311F0492B01C048234083E90121976C
:1004F000F1F748E0508160FF02C0592B01C058233A
:100500005083E9012197F1F76695415099F77723D8
:1005100021F090818923808303C08081982B908370
:100520001FBF5C968D919C915D970197F1F721E03B
:1005300030E0C901DF91CF911F91089520918D0185
:1005400030918E012817390771F480918C01209128
:100550008B0190E0805C9F4F821B910960E470E00A
:100560000E942407089580E090E0089520918D0175
:1005700030918E0128173907B9F490918B01809141
:100580008C01981789F0E0918B01F0E0EE5BFE4F53
:10059000808120918B0130E02F5F3F4F2F733327F5
:1005A00020938B0190E008958FEF9FEF0895E091E5
:1005B0008D01F0918E01E817F90769F4A389B489D8
:1005C0009C918589809589238C9310928E0110923D
:1005D0008D0181E0089580E00895FC018091300252
:1005E00090913102892B21F421E0309749F413C016
:1005F00080912C0290912D02309731F421E0FC0182
:100600008081882341F006C0BF010E94570921E084
:10061000892B09F020E0822F08950E9449090F9349
:100620001F93CF93DF93EC0188819981009729F084
:100630002A813B812617370788F48B016F5F7F4F34
:100640000E947F08009761F0998388831B830A8347
:100650002C813D81232B11F4FC01108281E001C02B
:1006600080E0DF91CF911F910F910895EF92FF925B
:100670000F931F93CF93DF93EC017B018A01BA01A3
:100680000E940F032881398181110DC02115310588
:1006900019F0C9010E94E707198218821D821C8285
:1006A0001B821A8206C01D830C83B701C9010E94F8
:1006B0006009CE01DF91CF911F910F91FF90EF90D4
:1006C00008951F920F920FB60F9211242F933F930C
:1006D0004F935F936F937F938F939F93AF93BF934A
:1006E000EF93FF938FE891E00E94F000FF91EF916C
:1006F000BF91AF919F918F917F916F915F914F913A
:100700003F912F910F900FBE0F901F9018951F9241
:100710000F920FB60F9211242F938F939F93EF9305
:10072000FF93E0919F01F091A0018081E091A501EC
:10073000F091A60182FD12C090818091A8018F5F87
:100740008F732091A901821751F0E091A801F0E088
:10075000E157FE4F958F8093A80101C08081FF91E2
:10076000EF919F918F912F910F900FBE0F901F903F
:1007700018951F920F920FB60F9211242F933F934B
:100780008F939F93AF93BF93809183019091840146
:10079000A0918501B09186013091820123E0230F61
:1007A0002D3720F40196A11DB11D05C026E8230FA9
:1007B0000296A11DB11D2093820180938301909325
:1007C0008401A0938501B093860180918701909167
:1007D0008801A0918901B0918A010196A11DB11DE6
:1007E0008093870190938801A0938901B0938A0137
:1007F000BF91AF919F918F913F912F910F900FBE1D
:100800000F901F9018951F920F920FB60F92112400
:100810002F933F934F935F936F937F938F939F9308
:10082000AF93BF93EF93FF93E0918D01F0918E0111
:10083000309709F451C0968DA685B785858591FFBF
:1008400004C09C91892329F447C09C91892309F015
:1008500043C0A389B4899C918589809589238C9311
:10086000868997890197F1F7608D718DA685B78587
:10087000558538E020E0CB010197F1F7822F90E019
:1008800095958795282F4C91452309F02068315084
:1008900091F7868D81FD209580918C0190E00196E5
:1008A0008F73992730918B01381749F0A0918C01F3
:1008B000B0E0AE5BBE4F2C9380938C0103C0868D5D
:1008C0008160868F828D938D0197F1F7A389B4891A
:1008D0009C918589892B8C93FF91EF91BF91AF916A
:1008E0009F918F917F916F915F914F913F912F9148
:1008F0000F900FBE0F901F901895109292011092BA
:10090000910188EE93E0A0E0B0E080939301909392
:100910009401A0939501B09396012AE031E03093C1
:10092000900120938F0125EC30E030939C012093BF
:100930009B0124EC30E030939E0120939D0120EC3C
:1009400030E03093A00120939F0121EC30E0309300
:10095000A2012093A10122EC30E03093A401209366
:10096000A30126EC30E03093A6012093A50110925C
:10097000A8011092A9011092AA011092AB01109245
:100980003502109234028093360290933702A0937E
:100990003802B09339028AE191E090933302809358
:1009A0003202109249021092480210924B021092A9
:1009B0004A0210924D0210924C0210924F02109275
:1009C0004E02609150026E7F6D7F6093500266957B
:1009D000617081E068270E94840161E081E00E94EB
:1009E000D001EFEAF0E0E491E0934202EBE9F0E0BD
:1009F000E491F0E0EE0FFF1FEA57FF4F85919491CD
:100A0000909344028093430260E080E00E94D00112
:100A10008091500281FD04C061E080E00E94840169
:100A200010923E02EEEAF0E0E491E0933F02EAE940
:100A3000F0E0E491F0E0EE0FFF1FE057FF4F8591EB
:100A40009491909341028093400210922D02109253
:100A50002C0210922F0210922E021092310210924C
:100A6000300240E050E068E271E08CE292E00C94E9
:100A70003603CF93DF9300D0CDB7DEB7789484B53B
:100A8000826084BD84B5816084BD85B5826085BD8A
:100A900085B5816085BD80916E00816080936E0018
:100AA000109281008091810082608093810080910A
:100AB00081008160809381008091800081608093BB
:100AC00080008091B10084608093B1008091B0007B
:100AD00081608093B00080917A00846080937A0076
:100AE00080917A00826080937A0080917A008160A0
:100AF00080937A0080917A00806880937A001092C7
:100B0000C10010924D0210924C0210924B021092B2
:100B10004A0210924902109248028DE991E09093A6
:100B20004F0280934E0290913E02963108F057C0DA
:100B30002DEB30E030934902209348022BE931E05D
:100B400030934B0220934A022CE231E030934D0265
:100B500020934C0220916800983050F031E09E3094
:100B600008F430E081E001C0880F3A95EAF701C04F
:100B700084E0822B80936800983038F09E3040F0FB
:100B8000963148F020E030E008C02DE630E005C0A6
:100B90002BE630E002C02CE630E030934602209392
:100BA0004502983030F481E001C0880F9A95EAF749
:100BB0000EC0292F30E09E3018F42850310902C0B1
:100BC0002E50310981E001C0880F2A95EAF7809301
:100BD000470280914E0290914F020197F1F7809168
:100BE0004C0290914D02892B21F180918D019091C1
:100BF0008E0122E082339207E1F0009711F00E940B
:100C0000D702809150028E7F8093500210928C0107
:100C100010928B0182E392E090938E0180938D017C
:100C2000E0914502F0914602908180914702892B24
:100C30008083E0919F01F091A00182E08083E091A8
:100C40009B01F0919C011082E0919D01F0919E0129
:100C50008FEC80831092A701E091A301F091A40191
:100C600086E08083E091A101F091A2018081806102
:100C70008083E091A101F091A2018081886080834E
:100C8000E091A101F091A201808180688083E091D0
:100C9000A101F091A20180818F7D808361E08AE0D3
:100CA0000E94D00161E08BE00E94D00161E08CE005
:100CB0000E94D00160E08AE00E94840160E08BE045
:100CC0000E94840160E08CE00E94840182E392E053
:100CD0000E949E02892B09F44EC00E940C024B0117
:100CE0005C018AE0C82ED12CE12CF12C0E940C0270
:100CF000DC01CB0188199909AA09BB09883E9340F8
:100D0000A105B10558F081E0C81AD108E108F10841
:100D100028EE820E23E0921EA11CB11CC114D10446
:100D2000E104F10419F782E392E00E94B60289839C
:100D30001A8200913002109131020F5F1F4FB801EB
:100D40008CE292E00E940F03882309F4BFCF209128
:100D50002C0230912D028091300290913102BE011F
:100D60006F5F7F4F820F931F0E94600910933102C3
:100D700000933002ABCF40913002509131024115C7
:100D8000510509F44EC060912C0270912D028FE83C
:100D900091E00E948D0042E050E066E271E08FE851
:100DA00091E00E948D0089E291E00E94ED0288238B
:100DB00011F061E023C080E391E00E94ED028823FE
:100DC00031F060E08AE00E94840161E01BC087E3AB
:100DD00091E00E94ED02882351F060E08AE00E94D9
:100DE000840160E08BE00E94840161E00FC08EE32B
:100DF00091E00E94ED02882361F060E08AE00E94A9
:100E0000840160E08BE00E94840160E08CE00E943D
:100E1000840140E050E068E271E08CE292E00E94E0
:100E200036030E947A0152CF80912C0290912D02BC
:100E30000E94E7078AE191E09093330280933202A7
:100E400082E392E00C94D70297FB072E16F40094ED
:100E500007D077FD09D00E94380707FC05D03EF483
:100E6000909581959F4F0895709561957F4F089556
:100E7000AA1BBB1B51E107C0AA1FBB1FA617B707C0
:100E800010F0A61BB70B881F991F5A95A9F78095DC
:100E90009095BC01CD010895EE0FFF1F0590F491D0
:100EA000E02D0994CF93DF938230910510F482E016
:100EB00090E0E0915302F091540220E030E0C0E075
:100EC000D0E0309711F14081518148175907C0F0A7
:100ED0004817590761F482819381209719F09B8309
:100EE0008A832BC0909354028093530226C021150D
:100EF000310519F04217530718F49A01BE01DF01BA
:100F0000EF010280F381E02DDCCF2115310509F1DD
:100F1000281B390B2430310590F412968D919C9149
:100F200013976115710521F0FB019383828304C03F
:100F30009093540280935302FD01329644C0FD0108
:100F4000E20FF31F81939193225031092D933C932B
:100F50003AC02091510230915202232B41F420914A
:100F600002013091030130935202209351022091EB
:100F70000001309101012115310541F42DB73EB733
:100F80004091040150910501241B350BE091510261
:100F9000F0915202E217F307A0F42E1B3F0B281723
:100FA000390778F0AC014E5F5F4F2417350748F0E2
:100FB0004E0F5F1F509352024093510281939193C1
:100FC00002C0E0E0F0E0CF01DF91CF9108950F93F0
:100FD0001F93CF93DF93009709F48CC0FC013297E5
:100FE00013821282009153021091540201151105CF
:100FF00081F420813181820F931F20915102309121
:1010000052022817390779F5F0935202E093510202
:1010100071C0D80140E050E0AE17BF0750F41296FF
:101020002D913C911397AD012115310509F1D9019D
:10103000F3CF9D01DA013383228360817181860FB2
:10104000971F8217930769F4EC0128813981260FD5
:10105000371F2E5F3F4F318320838A819B8193838B
:101060008283452B29F4F0935402E093530242C04B
:101070001396FC93EE931297ED01499159919E01BD
:10108000240F351FE217F30771F480819181840FDB
:10109000951F029611969C938E938281938113964D
:1010A0009C938E931297E0E0F0E0D80112968D9118
:1010B0009C911397009719F0F8018C01F6CF8D9150
:1010C0009C9198012E5F3F4F820F931F20915102F8
:1010D000309152022817390769F4309729F4109299
:1010E00054021092530202C01382128210935202D1
:1010F00000935102DF91CF911F910F910895A0E0CD
:10110000B0E0E5E8F8E00C946B09EC01009721F4FD
:10111000CB010E945207B8C0FC01E60FF71F9C01EB
:1011200022503109E217F30708F4ACC0D9010D9140
:101130001C91119706171707B0F00530110508F438
:101140009FC0C80104978617970708F499C00250FA
:101150001109061B170B019311936D937C93CF011B
:101160000E94E7078DC05B01A01AB10A4C01800EF6
:10117000911EA0915302B091540240E050E0E12C46
:10118000F12C109709F44AC0A815B905D1F56D9056
:101190007C901197630182E0C80ED11CCA14DB0455
:1011A00080F1A3014A195B096A0182E0C80ED11CD3
:1011B0001296BC9012971396AC91B5E0CB16D10461
:1011C00040F0B282A38351834083D9016D937C9315
:1011D0000AC00E5F1F4FC301800F911FF901918359
:1011E0008083EB2DFA2FE114F10431F0D70113962F
:1011F000FC93EE93129744C0F0935402E093530291
:101200003FC08D919C9111974817590708F4AC0184
:101210007D0112960D90BC91A02DB3CF809151020B
:101220009091520288159905E1F446175707C8F4C2
:101230008091000190910101009741F48DB79EB714
:101240004091040150910501841B950BE817F907A3
:10125000C8F4F0935202E0935102F9017183608364
:101260000FC0CB010E9452077C01009759F0A801E2
:10127000BE010E944E09CE010E94E707C70104C0CB
:10128000CE0102C080E090E0CDB7DEB7EEE00C9476
:10129000870981E090E0F8940C949E09FB01DC0141
:1012A00002C001900D9241505040D8F70895FB01C3
:1012B000DC018D91019080190110D9F3990B0895EB
:1012C000FB01DC0101900D920020E1F708952F92BF
:1012D0003F924F925F926F927F928F929F92AF92C6
:1012E000BF92CF92DF92EF92FF920F931F93CF9313
:1012F000DF93CDB7DEB7CA1BDB0B0FB6F894DEBFAA
:101300000FBECDBF09942A88398848885F846E84CF
:101310007D848C849B84AA84B984C884DF80EE8019
:10132000FD800C811B81AA81B981CE0FD11D0FB622
:10133000F894DEBF0FBECDBFED01089510E0C2E608
:10134000D0E004C0FE010E944C072196C336D107AD
:06135000C9F7F894FFCF7D
:101356000000550280000000000011018D00DA0037
:10136600B800CC005801000000004A028D009E0221
:10137600B602310249020D0A0072656C61793100CC
:1013860072656C6179320072656C617933006F66E3
:021396006600EF
:107E0000112484B714BE81FFF0D085E080938100F7
:107E100082E08093C00088E18093C10086E0809377
:107E2000C20080E18093C4008EE0C9D0259A86E02C
:107E300020E33CEF91E0309385002093840096BBD3
:107E4000B09BFECF1D9AA8958150A9F7CC24DD24C4
:107E500088248394B5E0AB2EA1E19A2EF3E0BF2EE7
:107E6000A2D0813461F49FD0082FAFD0023811F036
:107E7000013811F484E001C083E08DD089C08234E0
:107E800011F484E103C0853419F485E0A6D080C0E4
:107E9000853579F488D0E82EFF2485D0082F10E0AE
:107EA000102F00270E291F29000F111F8ED06801E7
:107EB0006FC0863521F484E090D080E0DECF843638
:107EC00009F040C070D06FD0082F6DD080E0C81688
:107ED00080E7D80618F4F601B7BEE895C0E0D1E017
:107EE00062D089930C17E1F7F0E0CF16F0E7DF06D8
:107EF00018F0F601B7BEE89568D007B600FCFDCFD4
:107F0000A601A0E0B1E02C9130E011968C91119780
:107F100090E0982F8827822B932B1296FA010C0160
:107F200087BEE89511244E5F5F4FF1E0A038BF0790
:107F300051F7F601A7BEE89507B600FCFDCF97BE46
:107F4000E89526C08437B1F42ED02DD0F82E2BD052
:107F50003CD0F601EF2C8F010F5F1F4F84911BD097
:107F6000EA94F801C1F70894C11CD11CFA94CF0C13
:107F7000D11C0EC0853739F428D08EE10CD085E9AC
:107F80000AD08FE07ACF813511F488E018D01DD067
:107F900080E101D065CF982F8091C00085FFFCCF94
:107FA0009093C60008958091C00087FFFCCF809118
:107FB000C00084FD01C0A8958091C6000895E0E648
:107FC000F0E098E1908380830895EDDF803219F02E
:107FD00088E0F5DFFFCF84E1DECF1F93182FE3DFCA
:107FE0001150E9F7F2DF1F91089580E0E8DFEE27F6
:047FF000FF270994CA
:027FFE00040479
:0400000300007E007B
:00000001FF
