:100000000C9462000C948A000C948A000C948A0070
:100010000C948A000C948A000C948A000C948A0038
:100020000C948A000C948A000C948A000C948A0028
:100030000C948A000C948A000C948A000C948A0018
:100040000C9419030C948A000C948A000C948A0076
:100050000C948A000C948A000C948A000C948A00F8
:100060000C948A000C948A000000000024002700F1
:100070002A0000000000250028002B0000000000DE
:1000800023002600290004040404040404040202DA
:100090000202020203030303030301020408102007
:1000A0004080010204081020010204081020000012
:1000B0000008000201000003040700000000000027
:1000C0000000270411241FBECFEFD8E0DEBFCDBF54
:1000D00011E0A0E0B1E0E8EAF8E002C005900D927E
:1000E000A036B107D9F721E0A0E6B1E001C01D922A
:1000F000A138B207E1F710E0C2E6D0E004C02197D2
:10010000FE010E944704C136D107C9F70E9463036C
:100110000C9452040C940000CF92DF92EF92FF9265
:100120000F931F93CF93DF936C017A018B01C0E093
:10013000D0E0CE15DF0589F0D8016D918D01D60193
:10014000ED91FC910190F081E02DC6010995892B7C
:1001500011F47E0102C02196ECCFC701DF91CF914F
:100160001F910F91FF90EF90DF90CF900895833013
:1001700081F028F4813099F08230A1F00895873021
:10018000A9F08830B9F08430D1F4809180008F7D5F
:1001900003C0809180008F7780938000089584B59C
:1001A0008F7702C084B58F7D84BD08958091B000A3
:1001B0008F7703C08091B0008F7D8093B000089549
:1001C0001F93CF93DF93282F30E0F901E255FF4FC3
:1001D0008491F901E656FF4FD491F901EA57FF4F98
:1001E000C491CC23C9F0162F81110E94B700EC2FC7
:1001F000F0E0EE0FFF1FEE58FF4FA591B4918FB7BF
:10020000F894111105C09C91ED2FE095E92302C0EF
:10021000EC91ED2BEC938FBFDF91CF911F9108955F
:10022000CF93DF9390E0FC01E656FF4F2491FC0151
:10023000EA57FF4F8491882361F190E0880F991F5E
:10024000FC01E859FF4FC591D491FC01EE58FF4FD6
:10025000A591B491611109C09FB7F8948881209548
:1002600082238883EC912E230BC0623061F49FB708
:10027000F8943881822F809583238883EC912E2BEC
:100280002C939FBF06C08FB7F894E8812E2B28834C
:100290008FBFDF91CF9108953FB7F89480916501AA
:1002A00090916601A0916701B091680126B5A89B65
:1002B00005C02F3F19F00196A11DB11D3FBFBA2FF8
:1002C000A92F982F8827820F911DA11DB11DBC0158
:1002D000CD0142E0660F771F881F991F4A95D1F71D
:1002E00008958F929F92AF92BF92CF92DF92EF923A
:1002F000FF926B017C010E944C014B015C01C11417
:10030000D104E104F104F1F00E944C01DC01CB01C5
:1003100088199909AA09BB09883E9340A105B1052E
:1003200070F321E0C21AD108E108F10888EE880EC6
:1003300083E0981EA11CB11CC114D104E104F10496
:1003400019F7DDCFFF90EF90DF90CF90BF90AF9087
:100350009F908F900895CF93DF93EC0160E08E81A2
:100360000E94E00061E08E810E94E00060E08E81EA
:100370000E94E0008BE891E00197F1F7DF91CF91C7
:100380000895CF92DF92EF92FF920F931F93CF9336
:10039000DF937C016C0187E0C80ED11CC0E0D0E087
:1003A000062F10E0B8010C2E02C0759567950A94CF
:1003B000E2F76170F60181916F010E94E0002196E1
:1003C000C430D10579F7C701DF91CF911F910F910B
:1003D000FF90EF90DF90CF900C94AB01CF92DF9223
:1003E000EF92FF920F931F93CF93DF93EC01F62EC2
:1003F000642F8C810E94E0008D818F3F19F060E0B6
:100400000E94E0008F850F2D10E084FF25C06E0153
:1004100087E0C80ED11CE12CF12CB8010E2C02C0D3
:10042000759567950A94E2F76170F60181916F0105
:100430000E94E000FFEFEF1AFF0A88E0E816F104DF
:1004400061F7CE01DF91CF911F910F91FF90EF9057
:10045000DF90CF900C94AB01B80184E0759567955F
:100460008A95E1F7CE010E94C1016F2DCE01DF9187
:10047000CF911F910F91FF90EF90DF90CF900C9450
:10048000C10141E00E94EE0181E090E0089540E06A
:100490000C94EE01E0917C01E23010F4E15001C0D7
:1004A000E1E0F0E0E759FE4F6489606889E691E099
:1004B0000C94470261E00E9447028BE39FE10197A1
:1004C000F1F70895EF92FF920F931F93CF93DF936D
:1004D000EC01423018F08F8588608F874B8B1C8A27
:1004E00080E48D8B6E8B70E0605C7F4F6F8B61E082
:1004F0008C810E9410018D818F3F19F061E00E9474
:10050000100161E08E810E9410017E0187E0E80EFB
:10051000F11C00E010E08F8584FD03C084E090E0D2
:1005200002C088E090E0081719074CF461E0F70179
:1005300081917F010E9410010F5F1F4FECCF8BE371
:100540009DE00197F1F760E08C810E94E00060E09F
:100550008E810E94E0008D818F3F19F060E00E9443
:10056000E0006F8564FD1DC063E0CE010E94C10103
:100570000BE416E4C8010197F1F763E0CE010E9495
:10058000C101C8010197F1F763E0CE010E94C101EA
:1005900083E592E00197F1F762E0CE010E94C1018C
:1005A00016C06062CE010E9447028BE496E4019778
:1005B000F1F76F856062CE010E94470283E592E009
:1005C0000197F1F76F856062CE010E9447026F8547
:1005D0006062CE010E94470284E0888B6CE0CE010D
:1005E0000E944702CE010E945A0282E0898B66E097
:1005F000CE01DF91CF911F910F91FF90EF900C945E
:100600004702089580E090E00895009769F0FC01AA
:1006100001900020E9F73197AF01481B590BBC014D
:1006200089E691E00C948C0080E090E008950E94AF
:100630004D041F920F920FB60F9211242F933F93E8
:100640008F939F93AF93BF938091610190916201CB
:10065000A0916301B09164013091600123E0230F08
:100660002D3720F40196A11DB11D05C026E8230FEA
:100670000296A11DB11D20936001809361019093AA
:100680006201A0936301B093640180916501909130
:100690006601A0916701B09168010196A11DB11D8D
:1006A0008093650190936601A0936701B093680100
:1006B000BF91AF919F918F913F912F910F900FBE5E
:1006C0000F901F901895789484B5826084BD84B58E
:1006D000816084BD85B5826085BD85B5816085BD3D
:1006E00080916E00816080936E00109281008091F5
:1006F000810082608093810080918100816080937D
:100700008100809180008160809380008091B100A1
:1007100084608093B1008091B00081608093B000CC
:1007200080917A00846080937A0080917A00826060
:1007300080937A0080917A00816080937A00809122
:100740007A00806880937A001092C10060E081E1B5
:100750000E94100161E08DE00E94100142E060E221
:1007600089E691E00E9462028CE091E00E9405031C
:100770000E944A0289E191E00E94050368EB7BE058
:1007800080E090E00E947101CFEBD0E00BEA10E036
:1007900037E9E32E30E0F32E40E0C42E40E0D42EC3
:1007A000FE018491F801A490F701B490BB2081F17F
:1007B00081110E94B7008B2D90E0880F991F8458FB
:1007C0009F4FFC01A591B4918C91A82209F161E0A1
:1007D0008DE00E94E00089E691E00E945A0281E2E9
:1007E00091E00E9405030E944A0281E391E00E9489
:1007F000050360E971E080E090E00E94710160E033
:100800008DE00E94E00064EF71E080E090E016C0AF
:1008100060E08DE00E94E00089E691E00E945A02CB
:1008200081E491E00E9405030E944A028FE491E076
:100830000E94050368EE73E080E090E00E94710181
:10084000C114D10409F4ACCF0E940000A9CFE9E69D
:10085000F1E01382128284E091E0918380838CE046
:1008600084838FEF85838BE0868385E0878384E0B4
:10087000808783E0818782E08287138614861586CD
:100880001686178641E060E1CF010C946202EE0FFC
:10089000FF1F0590F491E02D099481E090E0F89419
:0808A0000C945204F894FFCF00
:1008A8000000000041028C0002030103476173202D
:1008B8004465746563746F72004761732033363022
:1008C800004C504720476173204C65616B61676538
:1008D800002020446574656374656421212120200B
:1008E8000020204E6F204C50472047617320002085
:1008F8002020204C65616B61676520202020000066
:00000001FF
